{
    "contractName": "IcoCrowdsale",
    "abi": [
        {
            "constant": true,
            "inputs": [],
            "name": "confirmationPeriod",
            "outputs": [
                {
                    "name": "",
                    "type": "uint256"
                }
            ],
            "payable": false,
            "stateMutability": "view",
            "type": "function"
        },
        {
            "constant": false,
            "inputs": [
                {
                    "name": "_to",
                    "type": "address"
                },
                {
                    "name": "_tokens",
                    "type": "uint256"
                }
            ],
            "name": "mintDevelopmentTeamTokens",
            "outputs": [],
            "payable": false,
            "stateMutability": "nonpayable",
            "type": "function"
        },
        {
            "constant": true,
            "inputs": [
                {
                    "name": "",
                    "type": "uint256"
                }
            ],
            "name": "vestingWallets",
            "outputs": [
                {
                    "name": "",
                    "type": "address"
                }
            ],
            "payable": false,
            "stateMutability": "view",
            "type": "function"
        },
        {
            "constant": true,
            "inputs": [],
            "name": "tier1Reached",
            "outputs": [
                {
                    "name": "",
                    "type": "bool"
                }
            ],
            "payable": false,
            "stateMutability": "view",
            "type": "function"
        },
        {
            "constant": true,
            "inputs": [],
            "name": "DISCOUNT_TOKEN_AMOUNT_T2",
            "outputs": [
                {
                    "name": "",
                    "type": "uint256"
                }
            ],
            "payable": false,
            "stateMutability": "view",
            "type": "function"
        },
        {
            "constant": true,
            "inputs": [],
            "name": "DEVELOPMENT_TEAM_CAP",
            "outputs": [
                {
                    "name": "",
                    "type": "uint256"
                }
            ],
            "payable": false,
            "stateMutability": "view",
            "type": "function"
        },
        {
            "constant": false,
            "inputs": [
                {
                    "name": "_beneficiary",
                    "type": "address"
                },
                {
                    "name": "_tokens",
                    "type": "uint256"
                }
            ],
            "name": "mintTokenPreSale",
            "outputs": [],
            "payable": false,
            "stateMutability": "nonpayable",
            "type": "function"
        },
        {
            "constant": true,
            "inputs": [],
            "name": "rate",
            "outputs": [
                {
                    "name": "",
                    "type": "uint256"
                }
            ],
            "payable": false,
            "stateMutability": "view",
            "type": "function"
        },
        {
            "constant": true,
            "inputs": [],
            "name": "CHF_CENT_PER_TOKEN",
            "outputs": [
                {
                    "name": "",
                    "type": "uint256"
                }
            ],
            "payable": false,
            "stateMutability": "view",
            "type": "function"
        },
        {
            "constant": true,
            "inputs": [],
            "name": "endTime",
            "outputs": [
                {
                    "name": "",
                    "type": "uint256"
                }
            ],
            "payable": false,
            "stateMutability": "view",
            "type": "function"
        },
        {
            "constant": true,
            "inputs": [],
            "name": "tokenPerWei",
            "outputs": [
                {
                    "name": "",
                    "type": "uint256"
                }
            ],
            "payable": false,
            "stateMutability": "view",
            "type": "function"
        },
        {
            "constant": false,
            "inputs": [
                {
                    "name": "_to",
                    "type": "address"
                },
                {
                    "name": "_tokens",
                    "type": "uint256"
                }
            ],
            "name": "mintIcoEnablersTokens",
            "outputs": [],
            "payable": false,
            "stateMutability": "nonpayable",
            "type": "function"
        },
        {
            "constant": false,
            "inputs": [
                {
                    "name": "_investor",
                    "type": "address"
                },
                {
                    "name": "_active",
                    "type": "bool"
                }
            ],
            "name": "blackListInvestor",
            "outputs": [],
            "payable": false,
            "stateMutability": "nonpayable",
            "type": "function"
        },
        {
            "constant": true,
            "inputs": [],
            "name": "weiRaised",
            "outputs": [
                {
                    "name": "",
                    "type": "uint256"
                }
            ],
            "payable": false,
            "stateMutability": "view",
            "type": "function"
        },
        {
            "constant": true,
            "inputs": [],
            "name": "MIN_CONTRIBUTION_CHF",
            "outputs": [
                {
                    "name": "",
                    "type": "uint256"
                }
            ],
            "payable": false,
            "stateMutability": "view",
            "type": "function"
        },
        {
            "constant": true,
            "inputs": [],
            "name": "developmentTeamTokensMinted",
            "outputs": [
                {
                    "name": "",
                    "type": "uint256"
                }
            ],
            "payable": false,
            "stateMutability": "view",
            "type": "function"
        },
        {
            "constant": false,
            "inputs": [],
            "name": "finalize",
            "outputs": [],
            "payable": false,
            "stateMutability": "nonpayable",
            "type": "function"
        },
        {
            "constant": false,
            "inputs": [
                {
                    "name": "_investmentIds",
                    "type": "uint256[]"
                }
            ],
            "name": "batchSettleInvestments",
            "outputs": [],
            "payable": false,
            "stateMutability": "nonpayable",
            "type": "function"
        },
        {
            "constant": true,
            "inputs": [],
            "name": "VESTING_DURATION",
            "outputs": [
                {
                    "name": "",
                    "type": "uint256"
                }
            ],
            "payable": false,
            "stateMutability": "view",
            "type": "function"
        },
        {
            "constant": true,
            "inputs": [],
            "name": "capReached",
            "outputs": [
                {
                    "name": "",
                    "type": "bool"
                }
            ],
            "payable": false,
            "stateMutability": "view",
            "type": "function"
        },
        {
            "constant": true,
            "inputs": [],
            "name": "wallet",
            "outputs": [
                {
                    "name": "",
                    "type": "address"
                }
            ],
            "payable": false,
            "stateMutability": "view",
            "type": "function"
        },
        {
            "constant": true,
            "inputs": [],
            "name": "tier2Reached",
            "outputs": [
                {
                    "name": "",
                    "type": "bool"
                }
            ],
            "payable": false,
            "stateMutability": "view",
            "type": "function"
        },
        {
            "constant": true,
            "inputs": [],
            "name": "DISCOUNT_TOKEN_AMOUNT_T1",
            "outputs": [
                {
                    "name": "",
                    "type": "uint256"
                }
            ],
            "payable": false,
            "stateMutability": "view",
            "type": "function"
        },
        {
            "constant": true,
            "inputs": [],
            "name": "VESTING_CLIFF",
            "outputs": [
                {
                    "name": "",
                    "type": "uint256"
                }
            ],
            "payable": false,
            "stateMutability": "view",
            "type": "function"
        },
        {
            "constant": true,
            "inputs": [],
            "name": "tokensMinted",
            "outputs": [
                {
                    "name": "",
                    "type": "uint256"
                }
            ],
            "payable": false,
            "stateMutability": "view",
            "type": "function"
        },
        {
            "constant": false,
            "inputs": [
                {
                    "name": "_investmentIds",
                    "type": "uint256[]"
                }
            ],
            "name": "batchConfirmPayments",
            "outputs": [],
            "payable": false,
            "stateMutability": "nonpayable",
            "type": "function"
        },
        {
            "constant": true,
            "inputs": [],
            "name": "startTime",
            "outputs": [
                {
                    "name": "",
                    "type": "uint256"
                }
            ],
            "payable": false,
            "stateMutability": "view",
            "type": "function"
        },
        {
            "constant": true,
            "inputs": [],
            "name": "MAX_TOKEN_CAP",
            "outputs": [
                {
                    "name": "",
                    "type": "uint256"
                }
            ],
            "payable": false,
            "stateMutability": "view",
            "type": "function"
        },
        {
            "constant": false,
            "inputs": [
                {
                    "name": "_investmentId",
                    "type": "uint256"
                }
            ],
            "name": "confirmPayment",
            "outputs": [],
            "payable": false,
            "stateMutability": "nonpayable",
            "type": "function"
        },
        {
            "constant": false,
            "inputs": [
                {
                    "name": "_investmentId",
                    "type": "uint256"
                }
            ],
            "name": "settleInvestment",
            "outputs": [],
            "payable": false,
            "stateMutability": "nonpayable",
            "type": "function"
        },
        {
            "constant": true,
            "inputs": [],
            "name": "owner",
            "outputs": [
                {
                    "name": "",
                    "type": "address"
                }
            ],
            "payable": false,
            "stateMutability": "view",
            "type": "function"
        },
        {
            "constant": false,
            "inputs": [],
            "name": "finalizeConfirmationPeriod",
            "outputs": [],
            "payable": false,
            "stateMutability": "nonpayable",
            "type": "function"
        },
        {
            "constant": true,
            "inputs": [],
            "name": "totalTokensPurchased",
            "outputs": [
                {
                    "name": "",
                    "type": "uint256"
                }
            ],
            "payable": false,
            "stateMutability": "view",
            "type": "function"
        },
        {
            "constant": true,
            "inputs": [],
            "name": "minContributionInWei",
            "outputs": [
                {
                    "name": "",
                    "type": "uint256"
                }
            ],
            "payable": false,
            "stateMutability": "view",
            "type": "function"
        },
        {
            "constant": false,
            "inputs": [
                {
                    "name": "_manager",
                    "type": "address"
                },
                {
                    "name": "_active",
                    "type": "bool"
                }
            ],
            "name": "setManager",
            "outputs": [],
            "payable": false,
            "stateMutability": "nonpayable",
            "type": "function"
        },
        {
            "constant": true,
            "inputs": [],
            "name": "icoEnablersTokensMinted",
            "outputs": [
                {
                    "name": "",
                    "type": "uint256"
                }
            ],
            "payable": false,
            "stateMutability": "view",
            "type": "function"
        },
        {
            "constant": true,
            "inputs": [],
            "name": "ICO_TOKEN_CAP",
            "outputs": [
                {
                    "name": "",
                    "type": "uint256"
                }
            ],
            "payable": false,
            "stateMutability": "view",
            "type": "function"
        },
        {
            "constant": true,
            "inputs": [],
            "name": "getVestingWalletLength",
            "outputs": [
                {
                    "name": "",
                    "type": "uint256"
                }
            ],
            "payable": false,
            "stateMutability": "view",
            "type": "function"
        },
        {
            "constant": true,
            "inputs": [],
            "name": "tokensToMint",
            "outputs": [
                {
                    "name": "",
                    "type": "uint256"
                }
            ],
            "payable": false,
            "stateMutability": "view",
            "type": "function"
        },
        {
            "constant": true,
            "inputs": [],
            "name": "ICO_ENABLERS_CAP",
            "outputs": [
                {
                    "name": "",
                    "type": "uint256"
                }
            ],
            "payable": false,
            "stateMutability": "view",
            "type": "function"
        },
        {
            "constant": false,
            "inputs": [
                {
                    "name": "_beneficiary",
                    "type": "address"
                }
            ],
            "name": "buyTokens",
            "outputs": [],
            "payable": true,
            "stateMutability": "payable",
            "type": "function"
        },
        {
            "constant": true,
            "inputs": [],
            "name": "hasEnded",
            "outputs": [
                {
                    "name": "",
                    "type": "bool"
                }
            ],
            "payable": false,
            "stateMutability": "view",
            "type": "function"
        },
        {
            "constant": true,
            "inputs": [],
            "name": "underwriter",
            "outputs": [
                {
                    "name": "",
                    "type": "address"
                }
            ],
            "payable": false,
            "stateMutability": "view",
            "type": "function"
        },
        {
            "constant": true,
            "inputs": [],
            "name": "confirmationPeriodOver",
            "outputs": [
                {
                    "name": "",
                    "type": "bool"
                }
            ],
            "payable": false,
            "stateMutability": "view",
            "type": "function"
        },
        {
            "constant": false,
            "inputs": [
                {
                    "name": "newOwner",
                    "type": "address"
                }
            ],
            "name": "transferOwnership",
            "outputs": [],
            "payable": false,
            "stateMutability": "nonpayable",
            "type": "function"
        },
        {
            "constant": true,
            "inputs": [
                {
                    "name": "",
                    "type": "address"
                }
            ],
            "name": "isManager",
            "outputs": [
                {
                    "name": "",
                    "type": "bool"
                }
            ],
            "payable": false,
            "stateMutability": "view",
            "type": "function"
        },
        {
            "constant": false,
            "inputs": [
                {
                    "name": "_investmentId",
                    "type": "uint256"
                }
            ],
            "name": "unConfirmPayment",
            "outputs": [],
            "payable": false,
            "stateMutability": "nonpayable",
            "type": "function"
        },
        {
            "constant": true,
            "inputs": [],
            "name": "investmentIdLastAttemptedToSettle",
            "outputs": [
                {
                    "name": "",
                    "type": "uint256"
                }
            ],
            "payable": false,
            "stateMutability": "view",
            "type": "function"
        },
        {
            "constant": true,
            "inputs": [],
            "name": "token",
            "outputs": [
                {
                    "name": "",
                    "type": "address"
                }
            ],
            "payable": false,
            "stateMutability": "view",
            "type": "function"
        },
        {
            "constant": true,
            "inputs": [
                {
                    "name": "",
                    "type": "uint256"
                }
            ],
            "name": "investments",
            "outputs": [
                {
                    "name": "investor",
                    "type": "address"
                },
                {
                    "name": "beneficiary",
                    "type": "address"
                },
                {
                    "name": "weiAmount",
                    "type": "uint256"
                },
                {
                    "name": "tokenAmount",
                    "type": "uint256"
                },
                {
                    "name": "confirmed",
                    "type": "bool"
                },
                {
                    "name": "attemptedSettlement",
                    "type": "bool"
                },
                {
                    "name": "completedSettlement",
                    "type": "bool"
                }
            ],
            "payable": false,
            "stateMutability": "view",
            "type": "function"
        },
        {
            "constant": true,
            "inputs": [
                {
                    "name": "",
                    "type": "address"
                }
            ],
            "name": "isBlacklisted",
            "outputs": [
                {
                    "name": "",
                    "type": "bool"
                }
            ],
            "payable": false,
            "stateMutability": "view",
            "type": "function"
        },
        {
            "inputs": [
                {
                    "name": "_startTime",
                    "type": "uint256"
                },
                {
                    "name": "_endTime",
                    "type": "uint256"
                },
                {
                    "name": "_rateChfPerEth",
                    "type": "uint256"
                },
                {
                    "name": "_wallet",
                    "type": "address"
                },
                {
                    "name": "_confirmationPeriodDays",
                    "type": "uint256"
                },
                {
                    "name": "_underwriter",
                    "type": "address"
                }
            ],
            "payable": false,
            "stateMutability": "nonpayable",
            "type": "constructor"
        },
        {
            "payable": true,
            "stateMutability": "payable",
            "type": "fallback"
        },
        {
            "anonymous": false,
            "inputs": [
                {
                    "indexed": false,
                    "name": "investor",
                    "type": "address"
                },
                {
                    "indexed": false,
                    "name": "blacklisted",
                    "type": "bool"
                }
            ],
            "name": "ChangedInvestorBlacklisting",
            "type": "event"
        },
        {
            "anonymous": false,
            "inputs": [
                {
                    "indexed": false,
                    "name": "manager",
                    "type": "address"
                },
                {
                    "indexed": false,
                    "name": "active",
                    "type": "bool"
                }
            ],
            "name": "ChangedManager",
            "type": "event"
        },
        {
            "anonymous": false,
            "inputs": [
                {
                    "indexed": false,
                    "name": "investmentId",
                    "type": "uint256"
                },
                {
                    "indexed": false,
                    "name": "investor",
                    "type": "address"
                },
                {
                    "indexed": false,
                    "name": "confirmed",
                    "type": "bool"
                }
            ],
            "name": "ChangedInvestmentConfirmation",
            "type": "event"
        },
        {
            "anonymous": false,
            "inputs": [
                {
                    "indexed": true,
                    "name": "previousOwner",
                    "type": "address"
                },
                {
                    "indexed": true,
                    "name": "newOwner",
                    "type": "address"
                }
            ],
            "name": "OwnershipTransferred",
            "type": "event"
        },
        {
            "anonymous": false,
            "inputs": [
                {
                    "indexed": true,
                    "name": "purchaser",
                    "type": "address"
                },
                {
                    "indexed": true,
                    "name": "beneficiary",
                    "type": "address"
                },
                {
                    "indexed": false,
                    "name": "value",
                    "type": "uint256"
                },
                {
                    "indexed": false,
                    "name": "amount",
                    "type": "uint256"
                }
            ],
            "name": "TokenPurchase",
            "type": "event"
        }
    ],
    "bytecode": "0x606060405234156200001057600080fd5b60405160c080620058188339810160405280805191906020018051919060200180519190602001805191906020018051919060200180519150869050858585428410156200005d57600080fd5b838310156200006b57600080fd5b600082116200007957600080fd5b600160a060020a03811615156200008f57600080fd5b620000a7640100000000620020896200023782021704565b60008054600160a060020a0319908116600160a060020a039384161790915560019590955560029390935560049190915560038054841691831691909117905560068054909216339091161790556200014a6a01a784379d99db42000000620001356a013da329b63364718000006a07dbb4082c9ad1798000006401000000006200025f810262001f081704565b9064010000000062001f086200025f82021704565b6a0ac0db698068112d000000146200016157600080fd5b600160a060020a03811615156200017757600080fd5b6200019233600164010000000062001b736200027a82021704565b620001c96103e8620001b486606464010000000062001ece6200030782021704565b9064010000000062001f2b6200033682021704565b600c55620001f584620001b46101f4670de0b6b3a764000064010000000062001ece6200030782021704565b600b5562015180909102601155600e8054600160a060020a03909216630100000002630100000060b860020a0319909216919091179055506200035f92505050565b6000620002436200034e565b604051809103906000f08015156200025a57600080fd5b905090565b6000828201838110156200026f57fe5b8091505b5092915050565b60065433600160a060020a039081169116146200029657600080fd5b600160a060020a0382166000908152600f602052604090819020805460ff19168315151790557fc805cd93de579d61b0924c5b5ed9db042198f72031750f8c95608d1cf7d83855908390839051600160a060020a039092168252151560208201526040908101905180910390a15050565b6000808315156200031c576000915062000273565b508282028284828115156200032d57fe5b04146200026f57fe5b60008082848115156200034557fe5b04949350505050565b60405161157c806200429c83390190565b613f2d806200036f6000396000f300606060405260043610620002815763ffffffff60e060020a6000350416630429b88081146200028e5780630fec3fff14620002b6578063170f37db14620002db578063173d6ca21462000310578063238fcbf8146200033a5780632618a571146200035057806329bf295814620003665780632c4e722e146200038b5780632ff420ef14620003a15780633197cbb614620003b7578063356f986514620003cd5780633c6044ba14620003e35780633ec3bf8214620004085780634042b66f146200042f57806341c8ba1e146200044557806344831edf146200045b5780634bb278f314620004715780634ccb8c3214620004875780634cfc4d3014620004d95780634f93594514620004ef578063521eb27314620005055780635924f811146200051b5780635b6edf78146200053157806363f3dbe514620005475780636de9f32b146200055d5780637235b154146200057357806378e9792514620005c55780637fe864b814620005db578063876ca09f14620005f15780638a6966b1146200060a5780638da5cb5b14620006235780639aa5ee731462000639578063a277d5b1146200064f578063a40cd3f31462000665578063a5e90eee146200067b578063b3eee63814620006a2578063b6acc48c14620006b8578063c9fd195514620006ce578063cbafee8a14620006e4578063cfd550a314620006fa578063ec8ac4d81462000710578063ecb70fb71462000726578063f00db260146200073c578063f1d618501462000752578063f2fde38b1462000768578063f3ae2415146200078a578063f58a579214620007ac578063fb9e127014620007c5578063fc0c546a14620007db578063fd345c8a14620007f1578063fe575a871462000855575b6200028c3362000877565b005b34156200029a57600080fd5b620002a462000c8f565b60405190815260200160405180910390f35b3415620002c257600080fd5b6200028c600160a060020a036004351660243562000c95565b3415620002e757600080fd5b620002f460043562000e3b565b604051600160a060020a03909116815260200160405180910390f35b34156200031c57600080fd5b6200032662000e64565b604051901515815260200160405180910390f35b34156200034657600080fd5b620002a462000e72565b34156200035c57600080fd5b620002a462000e81565b34156200037257600080fd5b6200028c600160a060020a036004351660243562000e90565b34156200039757600080fd5b620002a462001075565b3415620003ad57600080fd5b620002a46200107b565b3415620003c357600080fd5b620002a462001081565b3415620003d957600080fd5b620002a462001087565b3415620003ef57600080fd5b6200028c600160a060020a03600435166024356200108d565b34156200041457600080fd5b6200028c600160a060020a036004351660243515156200119a565b34156200043b57600080fd5b620002a462001233565b34156200045157600080fd5b620002a462001239565b34156200046757600080fd5b620002a46200123f565b34156200047d57600080fd5b6200028c62001245565b34156200049357600080fd5b6200028c60046024813581810190830135806020818102016040519081016040528093929190818152602001838360200280828437509496506200143695505050505050565b3415620004e557600080fd5b620002a462001483565b3415620004fb57600080fd5b620003266200148b565b34156200051157600080fd5b620002f462001494565b34156200052757600080fd5b62000326620014a3565b34156200053d57600080fd5b620002a4620014b2565b34156200055357600080fd5b620002a4620014c1565b34156200056957600080fd5b620002a4620014c9565b34156200057f57600080fd5b6200028c6004602481358181019083013580602081810201604051908101604052809392919081815260200183836020028082843750949650620014cf95505050505050565b3415620005d157600080fd5b620002a462001587565b3415620005e757600080fd5b620002a46200158d565b3415620005fd57600080fd5b6200028c6004356200159c565b34156200061657600080fd5b6200028c600435620016c1565b34156200062f57600080fd5b620002f462001ae8565b34156200064557600080fd5b6200028c62001af7565b34156200065b57600080fd5b620002a462001b67565b34156200067157600080fd5b620002a462001b6d565b34156200068757600080fd5b6200028c600160a060020a0360043516602435151562001b73565b3415620006ae57600080fd5b620002a462001c00565b3415620006c457600080fd5b620002a462001c06565b3415620006da57600080fd5b620002a462001c15565b3415620006f057600080fd5b620002a462001c1c565b34156200070657600080fd5b620002a462001c22565b6200028c600160a060020a036004351662000877565b34156200073257600080fd5b6200032662001c31565b34156200074857600080fd5b620002f462001c39565b34156200075e57600080fd5b6200032662001c4f565b34156200077457600080fd5b6200028c600160a060020a036004351662001c58565b34156200079657600080fd5b62000326600160a060020a036004351662001ce8565b3415620007b857600080fd5b6200028c60043562001cfd565b3415620007d157600080fd5b620002a462001e20565b3415620007e757600080fd5b620002f462001e26565b3415620007fd57600080fd5b6200080a60043562001e35565b604051600160a060020a039788168152959096166020860152604080860194909452606085019290925215156080840152151560a083015291151560c082015260e001905180910390f35b34156200086157600080fd5b62000326600160a060020a036004351662001e97565b6000806000806000806000806200088d62001f75565b600160a060020a038a161515620008a357600080fd5b620008ad62001eac565b1515620008b957600080fd5b600160a060020a03331660009081526010602052604090205460ff1615620008e057600080fd5b600c54349950620008f9908a9063ffffffff62001ece16565b600d5490975062000911908863ffffffff62001f0816565b600e54909650610100900460ff161515620009c3576a027b46536c66c8e30000008611156200098257600e805461ff00191661010017905562000966866a027b46536c66c8e300000063ffffffff62001f1816565b94506200097a878663ffffffff62001f1816565b925062000986565b8692505b620009ac60086200099f85600a63ffffffff62001ece16565b9063ffffffff62001f2b16565b9250620009c0888463ffffffff62001f0816565b97505b600e54610100900460ff168015620009e45750600e5462010000900460ff16155b1562000aa1576a04f68ca6d8cd91c600000086111562000a4857600e805462ff000019166201000017905562000a2c866a04f68ca6d8cd91c600000063ffffffff62001f1816565b935062000a40878563ffffffff62001f1816565b915062000a5f565b600085111562000a5b5784915062000a5f565b8691505b62000a7860096200099f84600a63ffffffff62001ece16565b915062000a9e8462000a918a8563ffffffff62001f0816565b9063ffffffff62001f0816565b97505b600e5462010000900460ff16801562000ac15750600e54610100900460ff165b801562000acc575081155b1562000ad6578697505b600d5462000aeb908863ffffffff62001f0816565b600d5560075462000b03908963ffffffff62001f0816565b60075560055462000b1b908a63ffffffff62001f0816565b600555600160a060020a03808b169033167f623b3804fa71d67900d064613da8f94b9617215ee90799290593e1745087ad188b8b60405191825260208201526040908101905180910390a360e06040519081016040908152600160a060020a0333811683528c16602083015281018a90526060810189905260006080820181905260a0820181905260c082015260158054919250906001810162000bc0838262001fb1565b6000928352602090922083916005020181518154600160a060020a031916600160a060020a03919091161781556020820151600182018054600160a060020a031916600160a060020a03929092169190911790556040820151816002015560608201518160030155608082015160048201805460ff191691151591909117905560a08201516004820180549115156101000261ff001990921691909117905560c082015160049091018054911515620100000262ff000019909216919091179055505050505050505050505050565b60115481565b60065460009033600160a060020a0390811691161462000cb457600080fd5b8282600160a060020a038216151562000ccc57600080fd5b6000811162000cda57600080fd5b600a546a01a784379d99db420000009062000cfc908663ffffffff62001f0816565b111562000d0857600080fd5b600a5462000d1d908563ffffffff62001f0816565b600a5584426301e133806305a39a80600062000d3862001fe0565b600160a060020a03909516855260208501939093526040808501929092526060840152901515608083015260a09091019051809103906000f080151562000d7e57600080fd5b92506013805480600101828162000d96919062001ff1565b50600091825260208220018054600160a060020a031916600160a060020a0386811691909117909155815416906340c10f1990859087906040516020015260405160e060020a63ffffffff8516028152600160a060020a0390921660048301526024820152604401602060405180830381600087803b151562000e1857600080fd5b6102c65a03f1151562000e2a57600080fd5b505050604051805150505050505050565b601380548290811062000e4a57fe5b600091825260209091200154600160a060020a0316905081565b600e54610100900460ff1681565b6a04f68ca6d8cd91c600000081565b6a01a784379d99db4200000081565b62000e9a62001f75565b60065433600160a060020a0390811691161462000eb657600080fd5b600154421062000ec557600080fd5b6007546a07dbb4082c9ad1798000009062000ee7908463ffffffff62001f0816565b111562000ef357600080fd5b60075462000f08908363ffffffff62001f0816565b60075560e060405190810160409081526000808352600160a060020a0386166020840152908201819052606082018490526080820181905260a0820181905260c082015260158054919250906001810162000f64838262001fb1565b6000928352602090922083916005020181518154600160a060020a031916600160a060020a03919091161781556020820151600182018054600160a060020a031916600160a060020a03929092169190911790556040820151816002015560608201518160030155608082015160048201805460ff191691151591909117905560a08201516004820180549115156101000261ff001990921691909117905560c082015160049091018054911515620100000262ff0000199092169190911790555050600160a060020a038084169033167f623b3804fa71d67900d064613da8f94b9617215ee90799290593e1745087ad1860008560405191825260208201526040908101905180910390a3505050565b60045481565b6103e881565b60025481565b600c5481565b60065433600160a060020a03908116911614620010a957600080fd5b8181600160a060020a0382161515620010c157600080fd5b60008111620010cf57600080fd5b6009546a013da329b633647180000090620010f1908563ffffffff62001f0816565b1115620010fd57600080fd5b60008054600160a060020a0316906340c10f1990869086906040516020015260405160e060020a63ffffffff8516028152600160a060020a0390921660048301526024820152604401602060405180830381600087803b15156200116057600080fd5b6102c65a03f115156200117257600080fd5b5050506040518051505060095462001191908463ffffffff62001f0816565b60095550505050565b600160a060020a0333166000908152600f602052604090205460ff161515620011c257600080fd5b600160a060020a03821660009081526010602052604090819020805460ff19168315151790557f28e9581b392023f172306b3c7c6f9842634617637cf4cdc860b0109a1d968555908390839051600160a060020a039092168252151560208201526040908101905180910390a15050565b60055481565b6101f481565b600a5481565b600e5433600160a060020a03908116630100000090920416146200126857600080fd5b60125460ff16806200128f57506011546002546200128c9163ffffffff62001f0816565b42115b15156200129b57600080fd5b600054600160a060020a0316633f4ba83a6040518163ffffffff1660e060020a028152600401600060405180830381600087803b1515620012db57600080fd5b6102c65a03f11515620012ed57600080fd5b505060008054600160a060020a0316915063d06f973490309060405160e060020a63ffffffff8516028152600160a060020a03909216600483015215156024820152604401600060405180830381600087803b15156200134c57600080fd5b6102c65a03f115156200135e57600080fd5b505060008054600160a060020a03169150637d64bcb490604051602001526040518163ffffffff1660e060020a028152600401602060405180830381600087803b1515620013ab57600080fd5b6102c65a03f11515620013bd57600080fd5b50505060405180515050600054600654600160a060020a039182169163f2fde38b911660405160e060020a63ffffffff8416028152600160a060020a039091166004820152602401600060405180830381600087803b15156200141f57600080fd5b6102c65a03f115156200143157600080fd5b505050565b60005b81518110156200147f57620014648282815181106200145457fe5b90602001906020020151620016c1565b6200147781600163ffffffff62001f0816565b905062001439565b5050565b6305a39a8081565b600e5460ff1681565b600354600160a060020a031681565b600e5462010000900460ff1681565b6a027b46536c66c8e300000081565b6301e1338081565b60085481565b600160a060020a0333166000908152600f6020526040812054819060ff161515620014f957600080fd5b600254421180156200152157506011546002546200151d9163ffffffff62001f0816565b4211155b15156200152d57600080fd5b60125460ff16156200153e57600080fd5b825181101562001431578281815181106200155557fe5b9060200190602002015191506200156c826200159c565b6200157f81600163ffffffff62001f0816565b90506200153e565b60015481565b6a0ac0db698068112d00000081565b600160a060020a0333166000908152600f602052604090205460ff161515620015c457600080fd5b60025442118015620015ec5750601154600254620015e89163ffffffff62001f0816565b4211155b1515620015f857600080fd5b60125460ff16156200160957600080fd5b60016015828154811015156200161b57fe5b906000526020600020906005020160040160006101000a81548160ff0219169083151502179055507fea26b7da6891fba334ef37288db835cbaefdc76ad5a1b5b071412812bae02dc9816015838154811015156200167557fe5b6000918252602090912060059091020154600160a060020a03166001604051928352600160a060020a03909116602083015215156040808301919091526060909101905180910390a150565b6012546000908190819081908190819060ff1680620016f55750601154600254620016f29163ffffffff62001f0816565b42115b15156200170157600080fd5b60158054889081106200171057fe5b906000526020600020906005020195508560040160029054906101000a900460ff161515156200173f57600080fd5b86158062001788575060156200175d88600163ffffffff62001f1816565b815481106200176857fe5b906000526020600020906005020160040160019054906101000a900460ff165b15156200179457600080fd5b60048601805461ff00191661010017815560148890555460ff168015620017be5750600e5460ff16155b1562001a56576003860154600854909550620017e1908663ffffffff62001f0816565b93506a07dbb4082c9ad1798000008411156200186b57600e805460ff1916600117905562001821846a07dbb4082c9ad17980000063ffffffff62001f1816565b905062001835858263ffffffff62001f1816565b94506200184e600c548262001f2b90919063ffffffff16565b600287015490935062001868908463ffffffff62001f1816565b91505b6008546a07dbb4082c9ad179800000906200188d908763ffffffff62001f0816565b11156200189957600080fd5b600754600090620018b1908763ffffffff62001f1816565b1015620018bd57600080fd5b600754620018d2908663ffffffff62001f1816565b600755600854620018ea908663ffffffff62001f0816565b600855600080546001880154600160a060020a03918216926340c10f19929091169088906040516020015260405160e060020a63ffffffff8516028152600160a060020a0390921660048301526024820152604401602060405180830381600087803b15156200195957600080fd5b6102c65a03f115156200196b57600080fd5b50505060405180515050600e5460ff1680156200198c575060008660020154115b15620019f357600354600160a060020a031682156108fc0283604051600060405180830381858888f193505050501515620019c657600080fd5b8554600160a060020a031683156108fc0284604051600060405180830381858888f1505050505062001a3d565b60008660020154111562001a3d576003546002870154600160a060020a039091169080156108fc0290604051600060405180830381858888f19350505050151562001a3d57600080fd5b60048601805462ff000019166201000017905562001adf565b8554600160a060020a03161580159062001a74575060008660020154115b1562001adf5785546002870154600160a060020a039091169080156108fc0290604051600060405180830381858888f193505050501562001adf57600386015460075462001ac89163ffffffff62001f1816565b60075560048601805462ff00001916620100001790555b50505050505050565b600654600160a060020a031681565b60065433600160a060020a0390811691161462001b1357600080fd5b6002544211801562001b3b575060115460025462001b379163ffffffff62001f0816565b4211155b151562001b4757600080fd5b60125460ff161562001b5857600080fd5b6012805460ff19166001179055565b600d5481565b600b5481565b60065433600160a060020a0390811691161462001b8f57600080fd5b600160a060020a0382166000908152600f602052604090819020805460ff19168315151790557fc805cd93de579d61b0924c5b5ed9db042198f72031750f8c95608d1cf7d83855908390839051600160a060020a039092168252151560208201526040908101905180910390a15050565b60095481565b6a07dbb4082c9ad17980000081565b6013545b90565b60075481565b6a013da329b633647180000081565b600254421190565b600e5463010000009004600160a060020a031681565b60125460ff1681565b60065433600160a060020a0390811691161462001c7457600080fd5b600160a060020a038116151562001c8a57600080fd5b600654600160a060020a0380831691167f8be0079c531659141344cd1fd0a4f28419497f9722a3daafe3b4186f6b6457e060405160405180910390a360068054600160a060020a031916600160a060020a0392909216919091179055565b600f6020526000908152604090205460ff1681565b600160a060020a0333166000908152600f602052604090205460ff16151562001d2557600080fd5b6002544211801562001d4d575060115460025462001d499163ffffffff62001f0816565b4211155b151562001d5957600080fd5b60125460ff161562001d6a57600080fd5b600060158281548110151562001d7c57fe5b906000526020600020906005020160040160006101000a81548160ff0219169083151502179055507fea26b7da6891fba334ef37288db835cbaefdc76ad5a1b5b071412812bae02dc98160158381548110151562001dd657fe5b60009182526020822060059091020154600160a060020a031690604051928352600160a060020a03909116602083015215156040808301919091526060909101905180910390a150565b60145481565b600054600160a060020a031681565b601580548290811062001e4457fe5b600091825260209091206005909102018054600182015460028301546003840154600490940154600160a060020a03938416955091909216929060ff808216916101008104821691620100009091041687565b60106020526000908152604090205460ff1681565b600b5460009034101562001ebf57600080fd5b62001ec962001f43565b905090565b60008083151562001ee3576000915062001f01565b5082820282848281151562001ef457fe5b041462001efd57fe5b8091505b5092915050565b60008282018381101562001efd57fe5b60008282111562001f2557fe5b50900390565b600080828481151562001f3a57fe5b04949350505050565b6000806000600154421015801562001f5d57506002544211155b91505034151581801562001f6e5750805b9250505090565b60e06040519081016040908152600080835260208301819052908201819052606082018190526080820181905260a0820181905260c082015290565b815481835581811511620014315760050281600502836000526020600020918201910162001431919062002018565b6040516108c880620020be83390190565b8154818355818115116200143157600083815260209020620014319181019083016200206c565b62001c1991905b8082111562002068578054600160a060020a031990811682556001820180549091169055600060028201819055600382015560048101805462ffffff191690556005016200201f565b5090565b62001c1991905b8082111562002068576000815560010162002073565b600062002095620020ac565b604051809103906000f080151562001ec957600080fd5b60405161157c80620029868339019056006060604052341561000f57600080fd5b60405160a0806108c8833981016040528080519190602001805191906020018051919060200180519190602001805160008054600160a060020a03191633600160a060020a039081169190911790915590925086161515905061007157600080fd5b8183111561007e57600080fd5b60018054600160a060020a031916600160a060020a0387161790556005805460ff191682151517905560048290556100c384846401000000006100d281026106c41704565b600255505050600355506100e8565b6000828201838110156100e157fe5b9392505050565b6107d1806100f76000396000f3006060604052600436106100ab5763ffffffff60e060020a6000350416630fb5a6b481146100b057806313d033c0146100d55780631726cbc8146100e85780631916558714610107578063384711cc1461012857806338af3eed1461014757806374a8f10314610176578063872a7810146101955780638da5cb5b146101bc5780639852595c146101cf578063be9a6555146101ee578063f2fde38b14610201578063fa01dc0614610220575b600080fd5b34156100bb57600080fd5b6100c361023f565b60405190815260200160405180910390f35b34156100e057600080fd5b6100c3610245565b34156100f357600080fd5b6100c3600160a060020a036004351661024b565b341561011257600080fd5b610126600160a060020a0360043516610283565b005b341561013357600080fd5b6100c3600160a060020a036004351661032f565b341561015257600080fd5b61015a610470565b604051600160a060020a03909116815260200160405180910390f35b341561018157600080fd5b610126600160a060020a036004351661047f565b34156101a057600080fd5b6101a86105d2565b604051901515815260200160405180910390f35b34156101c757600080fd5b61015a6105db565b34156101da57600080fd5b6100c3600160a060020a03600435166105ea565b34156101f957600080fd5b6100c36105fc565b341561020c57600080fd5b610126600160a060020a0360043516610602565b341561022b57600080fd5b6101a8600160a060020a036004351661069d565b60045481565b60025481565b600160a060020a03811660009081526006602052604081205461027d906102718461032f565b9063ffffffff6106b216565b92915050565b600061028e8261024b565b90506000811161029d57600080fd5b600160a060020a0382166000908152600660205260409020546102c6908263ffffffff6106c416565b600160a060020a038084166000818152600660205260409020929092556001546102f89291168363ffffffff6106de16565b7ffb81f9b30d73d830c3544b34d827c08142579ee75710b490bab0b3995468c5658160405190815260200160405180910390a15050565b600080600083600160a060020a03166370a082313060006040516020015260405160e060020a63ffffffff8416028152600160a060020a039091166004820152602401602060405180830381600087803b151561038b57600080fd5b6102c65a03f1151561039c57600080fd5b5050506040518051600160a060020a0386166000908152600660205260409020549093506103d29150839063ffffffff6106c416565b90506002544210156103e75760009250610469565b6004546003546103fc9163ffffffff6106c416565b421015806104225750600160a060020a03841660009081526007602052604090205460ff165b1561042f57809250610469565b61046660045461045a61044d600354426106b290919063ffffffff16565b849063ffffffff61076316565b9063ffffffff61078e16565b92505b5050919050565b600154600160a060020a031681565b600080548190819033600160a060020a0390811691161461049f57600080fd5b60055460ff1615156104b057600080fd5b600160a060020a03841660009081526007602052604090205460ff16156104d657600080fd5b83600160a060020a03166370a082313060006040516020015260405160e060020a63ffffffff8416028152600160a060020a039091166004820152602401602060405180830381600087803b151561052d57600080fd5b6102c65a03f1151561053e57600080fd5b5050506040518051905092506105538461024b565b9150610565838363ffffffff6106b216565b600160a060020a038086166000818152600760205260408120805460ff19166001179055549293506105a0929091168363ffffffff6106de16565b7f44825a4b2df8acb19ce4e1afba9aa850c8b65cdb7942e2078f27d0b0960efee660405160405180910390a150505050565b60055460ff1681565b600054600160a060020a031681565b60066020526000908152604090205481565b60035481565b60005433600160a060020a0390811691161461061d57600080fd5b600160a060020a038116151561063257600080fd5b600054600160a060020a0380831691167f8be0079c531659141344cd1fd0a4f28419497f9722a3daafe3b4186f6b6457e060405160405180910390a36000805473ffffffffffffffffffffffffffffffffffffffff1916600160a060020a0392909216919091179055565b60076020526000908152604090205460ff1681565b6000828211156106be57fe5b50900390565b6000828201838110156106d357fe5b8091505b5092915050565b82600160a060020a031663a9059cbb838360006040516020015260405160e060020a63ffffffff8516028152600160a060020a0390921660048301526024820152604401602060405180830381600087803b151561073b57600080fd5b6102c65a03f1151561074c57600080fd5b50505060405180519050151561075e57fe5b505050565b60008083151561077657600091506106d7565b5082820282848281151561078657fe5b04146106d357fe5b600080828481151561079c57fe5b049493505050505600a165627a7a72305820871a395617eaaee5f328a0b53d4dbce644bafe995507f950fe53e1a879b177ed00296060604052621a5e006004556301cd6d006005556000600c55600d805461ffff19169055341561002e57600080fd5b60038054600160a060020a03338116600160a060020a03199283168117909355600a805490921690921790819055166000908152600b60205260409020805460ff19166001179055600d805461ff0019166101001790556114e8806100946000396000f30060606040526004361061018a5763ffffffff7c010000000000000000000000000000000000000000000000000000000060003504166305d2035b81146102f657806306fdde031461031d578063095ea7b3146103a75780630e1da6c3146103c957806318160ddd146103ee57806323b872dd1461040157806323c69d2a146104295780632ffb995d1461043c578063313ce5671461045e578063316f2f06146104875780633f4ba83a1461049c5780633febb504146104af57806340c10f19146104ce57806351f9ff35146104f05780635c975abb14610503578063661884631461051657806370a08231146105385780637d64bcb4146105575780638456cb591461056a5780638da5cb5b1461057d57806395d89b41146105ac578063a9059cbb146105bf578063bfe9f204146105e1578063cb03fb1e146105f4578063cc0d50e614610613578063d06f973414610632578063d73dd62314610656578063dd62ed3e14610678578063e861c4f11461069d578063f0fc6bca146106b0578063f2fde38b146106c3575b600160a060020a0333166000908152600b602052604081205460ff1615156101b157600080fd5b600c544290106101c057600080fd5b3430600160a060020a031631111561026c576101ec600160a060020a033016313463ffffffff6106e216565b600a54909150600160a060020a031681156108fc0282604051600060405180830381858888f19350505050151561022257600080fd5b7ffdfbd510ced9ae591e489dd47c57e7223bd0019072a0b9181d8194ae042af1da81600c544260405180848152602001838152602001828152602001935050505060405180910390a15b600160a060020a0330163160065560055461028e90429063ffffffff6106f416565b600c819055507f4cec7c45e8b6df94bfa415bff3dacc238e98d5f21100bcfacc7899cdb137f2a43334600c546040518084600160a060020a0316600160a060020a03168152602001838152602001828152602001935050505060405180910390a15042600955005b341561030157600080fd5b61030961070e565b604051901515815260200160405180910390f35b341561032857600080fd5b610330610717565b60405160208082528190810183818151815260200191508051906020019080838360005b8381101561036c578082015183820152602001610354565b50505050905090810190601f1680156103995780820380516001836020036101000a031916815260200191505b509250505060405180910390f35b34156103b257600080fd5b610309600160a060020a036004351660243561074e565b34156103d457600080fd5b6103dc610777565b60405190815260200160405180910390f35b34156103f957600080fd5b6103dc61077d565b341561040c57600080fd5b610309600160a060020a0360043581169060243516604435610783565b341561043457600080fd5b6103dc6107ae565b341561044757600080fd5b6103dc600160a060020a03600435166024356107b4565b341561046957600080fd5b6104716107e1565b60405160ff909116815260200160405180910390f35b341561049257600080fd5b61049a6107e6565b005b34156104a757600080fd5b61049a6108b4565b34156104ba57600080fd5b6103dc600160a060020a036004351661091e565b34156104d957600080fd5b610309600160a060020a0360043516602435610976565b34156104fb57600080fd5b6103dc610a7d565b341561050e57600080fd5b610309610a83565b341561052157600080fd5b610309600160a060020a0360043516602435610a91565b341561054357600080fd5b6103dc600160a060020a0360043516610ab3565b341561056257600080fd5b610309610ace565b341561057557600080fd5b61049a610b3b565b341561058857600080fd5b610590610ba8565b604051600160a060020a03909116815260200160405180910390f35b34156105b757600080fd5b610330610bb7565b34156105ca57600080fd5b610309600160a060020a0360043516602435610bee565b34156105ec57600080fd5b6103dc610c10565b34156105ff57600080fd5b6103dc600160a060020a0360043516610c16565b341561061e57600080fd5b610309600160a060020a0360043516610c28565b341561063d57600080fd5b61049a600160a060020a03600435166024351515610c3d565b341561066157600080fd5b610309600160a060020a0360043516602435610cc9565b341561068357600080fd5b6103dc600160a060020a0360043581169060243516610ceb565b34156106a857600080fd5b6103dc610d16565b34156106bb57600080fd5b610309610d1c565b34156106ce57600080fd5b61049a600160a060020a0360043516610def565b6000828211156106ee57fe5b50900390565b60008282018381101561070357fe5b8091505b5092915050565b600d5460ff1681565b60408051908101604052600a81527f54656e6420546f6b656e00000000000000000000000000000000000000000000602082015281565b600d54600090610100900460ff161561076657600080fd5b6107708383610e8a565b9392505050565b60045481565b60015490565b600d54600090610100900460ff161561079b57600080fd5b6107a6848484610ef6565b949350505050565b60065481565b6000610770826107d56107c686610ab3565b6006549063ffffffff610f0e16565b9063ffffffff610f3916565b601281565b60035433600160a060020a0390811691161461080157600080fd5b600454600c546108169163ffffffff6106e216565b42101561082257600080fd5b33600160a060020a03166108fc30600160a060020a0316319081150290604051600060405180830381858888f19350505050151561085f57600080fd5b7ffdfbd510ced9ae591e489dd47c57e7223bd0019072a0b9181d8194ae042af1da30600160a060020a031631600c544260405180848152602001838152602001828152602001935050505060405180910390a1565b60035433600160a060020a039081169116146108cf57600080fd5b600d54610100900460ff1615156108e557600080fd5b600d805461ff00191690557f7805862f689e2f13df9f062ff482ad3ad112aca9e0847911ed832e158c525b3360405160405180910390a1565b600954600160a060020a03821660009081526008602052604081205490919010156109565761094f826001546107b4565b9050610971565b50600160a060020a0381166000908152600760205260409020545b919050565b60035460009033600160a060020a0390811691161461099457600080fd5b600d5460ff16156109a457600080fd5b6001546109b7908363ffffffff6106f416565b600155600160a060020a0383166000908152602081905260409020546109e3908363ffffffff6106f416565b600160a060020a0384166000818152602081905260409081902092909255907f0f6798a560793a54c3bcfe86a93cde1e73087d944c0ea20544137d41213968859084905190815260200160405180910390a2600160a060020a03831660007fddf252ad1be2c89b69c2b068fc378daa952ba7f163c4a11628f55a4df523b3ef8460405190815260200160405180910390a350600192915050565b60095481565b600d54610100900460ff1681565b600d54600090610100900460ff1615610aa957600080fd5b6107708383610f50565b600160a060020a031660009081526020819052604090205490565b60035460009033600160a060020a03908116911614610aec57600080fd5b600d5460ff1615610afc57600080fd5b600d805460ff191660011790557fae5184fba832cb2b1f702aca6117b8d265eaf03ad33eb133f19dde0f5920fa0860405160405180910390a150600190565b60035433600160a060020a03908116911614610b5657600080fd5b600d54610100900460ff1615610b6b57600080fd5b600d805461ff0019166101001790557f6985a02210a168e66602d3235cb6db0e70f92b3ba4d376a33c0f3d9434bff62560405160405180910390a1565b600a54600160a060020a031681565b60408051908101604052600381527f544e440000000000000000000000000000000000000000000000000000000000602082015281565b600d54600090610100900460ff1615610c0657600080fd5b610770838361104a565b60055481565b60086020526000908152604090205481565b600b6020526000908152604090205460ff1681565b60035433600160a060020a03908116911614610c5857600080fd5b600160a060020a0382166000908152600b602052604090819020805460ff19168315151790557f0f58bb821f51a11dd2b2c4c4bf598154812f2440c5e364d96d0ac50c33455620908390839051600160a060020a039092168252151560208201526040908101905180910390a15050565b600d54600090610100900460ff1615610ce157600080fd5b6107708383611061565b600160a060020a03918216600090815260026020908152604080832093909416825291909152205490565b600c5481565b6000806000600c54118015610d46575042610d44600454600c546106e290919063ffffffff16565b115b1515610d5157600080fd5b610d5a33611105565b50600160a060020a033316600081815260076020526040808220805492905590919082156108fc0290839051600060405180830381858888f193505050501515610da357600080fd5b7f5afeca38b2064c23a692c4cf353015d80ab3ecc417b4f893f372690c11fbd9a63382604051600160a060020a03909216825260208201526040908101905180910390a1600191505090565b60035433600160a060020a03908116911614610e0a57600080fd5b600160a060020a0381161515610e1f57600080fd5b600354600160a060020a0380831691167f8be0079c531659141344cd1fd0a4f28419497f9722a3daafe3b4186f6b6457e060405160405180910390a36003805473ffffffffffffffffffffffffffffffffffffffff1916600160a060020a0392909216919091179055565b600160a060020a03338116600081815260026020908152604080832094871680845294909152808220859055909291907f8c5be1e5ebec7d5bd14f71427d1e84f3dd0314c0f7b2291e5b200ac8c7c3b9259085905190815260200160405180910390a350600192915050565b6000610f0384848461115e565b6107a684848461122a565b600080831515610f215760009150610707565b50828202828482811515610f3157fe5b041461070357fe5b6000808284811515610f4757fe5b04949350505050565b600160a060020a03338116600090815260026020908152604080832093861683529290529081205480831115610fad57600160a060020a033381166000908152600260209081526040808320938816835292905290812055610fe4565b610fbd818463ffffffff6106e216565b600160a060020a033381166000908152600260209081526040808320938916835292905220555b600160a060020a0333811660008181526002602090815260408083209489168084529490915290819020547f8c5be1e5ebec7d5bd14f71427d1e84f3dd0314c0f7b2291e5b200ac8c7c3b925915190815260200160405180910390a35060019392505050565b600061105733848461115e565b61077083836113aa565b600160a060020a033381166000908152600260209081526040808320938616835292905290812054611099908363ffffffff6106f416565b600160a060020a0333811660008181526002602090815260408083209489168084529490915290819020849055919290917f8c5be1e5ebec7d5bd14f71427d1e84f3dd0314c0f7b2291e5b200ac8c7c3b92591905190815260200160405180910390a350600192915050565b600954600160a060020a038216600090815260086020526040902054101561115b57611133816001546107b4565b600160a060020a03821660009081526007602090815260408083209390935560089052204290555b50565b600061116984611105565b61117283611105565b6111a761117e85610ab3565b600160a060020a0386166000908152600760205260409020546107d5908563ffffffff610f0e16565b600160a060020a0385166000908152600760205260409020549091506111d3908263ffffffff6106e216565b600160a060020a038086166000908152600760205260408082209390935590851681522054611208908263ffffffff6106f416565b600160a060020a03909316600090815260076020526040902092909255505050565b6000600160a060020a038316151561124157600080fd5b600160a060020a03841660009081526020819052604090205482111561126657600080fd5b600160a060020a038085166000908152600260209081526040808320339094168352929052205482111561129957600080fd5b600160a060020a0384166000908152602081905260409020546112c2908363ffffffff6106e216565b600160a060020a0380861660009081526020819052604080822093909355908516815220546112f7908363ffffffff6106f416565b600160a060020a038085166000908152602081815260408083209490945587831682526002815283822033909316825291909152205461133d908363ffffffff6106e216565b600160a060020a03808616600081815260026020908152604080832033861684529091529081902093909355908516917fddf252ad1be2c89b69c2b068fc378daa952ba7f163c4a11628f55a4df523b3ef9085905190815260200160405180910390a35060019392505050565b6000600160a060020a03831615156113c157600080fd5b600160a060020a0333166000908152602081905260409020548211156113e657600080fd5b600160a060020a03331660009081526020819052604090205461140f908363ffffffff6106e216565b600160a060020a033381166000908152602081905260408082209390935590851681522054611444908363ffffffff6106f416565b60008085600160a060020a0316600160a060020a031681526020019081526020016000208190555082600160a060020a031633600160a060020a03167fddf252ad1be2c89b69c2b068fc378daa952ba7f163c4a11628f55a4df523b3ef8460405190815260200160405180910390a3506001929150505600a165627a7a72305820cc61e6c9ec233fecd2ebb41e712824e418c4fc6409d51c05bb5829a1062e83f40029a165627a7a7230582001d9217331658ffcb80ddf5c0bbc01f3eabc766427f3eecfb128306d57fac14100296060604052621a5e006004556301cd6d006005556000600c55600d805461ffff19169055341561002e57600080fd5b60038054600160a060020a03338116600160a060020a03199283168117909355600a805490921690921790819055166000908152600b60205260409020805460ff19166001179055600d805461ff0019166101001790556114e8806100946000396000f30060606040526004361061018a5763ffffffff7c010000000000000000000000000000000000000000000000000000000060003504166305d2035b81146102f657806306fdde031461031d578063095ea7b3146103a75780630e1da6c3146103c957806318160ddd146103ee57806323b872dd1461040157806323c69d2a146104295780632ffb995d1461043c578063313ce5671461045e578063316f2f06146104875780633f4ba83a1461049c5780633febb504146104af57806340c10f19146104ce57806351f9ff35146104f05780635c975abb14610503578063661884631461051657806370a08231146105385780637d64bcb4146105575780638456cb591461056a5780638da5cb5b1461057d57806395d89b41146105ac578063a9059cbb146105bf578063bfe9f204146105e1578063cb03fb1e146105f4578063cc0d50e614610613578063d06f973414610632578063d73dd62314610656578063dd62ed3e14610678578063e861c4f11461069d578063f0fc6bca146106b0578063f2fde38b146106c3575b600160a060020a0333166000908152600b602052604081205460ff1615156101b157600080fd5b600c544290106101c057600080fd5b3430600160a060020a031631111561026c576101ec600160a060020a033016313463ffffffff6106e216565b600a54909150600160a060020a031681156108fc0282604051600060405180830381858888f19350505050151561022257600080fd5b7ffdfbd510ced9ae591e489dd47c57e7223bd0019072a0b9181d8194ae042af1da81600c544260405180848152602001838152602001828152602001935050505060405180910390a15b600160a060020a0330163160065560055461028e90429063ffffffff6106f416565b600c819055507f4cec7c45e8b6df94bfa415bff3dacc238e98d5f21100bcfacc7899cdb137f2a43334600c546040518084600160a060020a0316600160a060020a03168152602001838152602001828152602001935050505060405180910390a15042600955005b341561030157600080fd5b61030961070e565b604051901515815260200160405180910390f35b341561032857600080fd5b610330610717565b60405160208082528190810183818151815260200191508051906020019080838360005b8381101561036c578082015183820152602001610354565b50505050905090810190601f1680156103995780820380516001836020036101000a031916815260200191505b509250505060405180910390f35b34156103b257600080fd5b610309600160a060020a036004351660243561074e565b34156103d457600080fd5b6103dc610777565b60405190815260200160405180910390f35b34156103f957600080fd5b6103dc61077d565b341561040c57600080fd5b610309600160a060020a0360043581169060243516604435610783565b341561043457600080fd5b6103dc6107ae565b341561044757600080fd5b6103dc600160a060020a03600435166024356107b4565b341561046957600080fd5b6104716107e1565b60405160ff909116815260200160405180910390f35b341561049257600080fd5b61049a6107e6565b005b34156104a757600080fd5b61049a6108b4565b34156104ba57600080fd5b6103dc600160a060020a036004351661091e565b34156104d957600080fd5b610309600160a060020a0360043516602435610976565b34156104fb57600080fd5b6103dc610a7d565b341561050e57600080fd5b610309610a83565b341561052157600080fd5b610309600160a060020a0360043516602435610a91565b341561054357600080fd5b6103dc600160a060020a0360043516610ab3565b341561056257600080fd5b610309610ace565b341561057557600080fd5b61049a610b3b565b341561058857600080fd5b610590610ba8565b604051600160a060020a03909116815260200160405180910390f35b34156105b757600080fd5b610330610bb7565b34156105ca57600080fd5b610309600160a060020a0360043516602435610bee565b34156105ec57600080fd5b6103dc610c10565b34156105ff57600080fd5b6103dc600160a060020a0360043516610c16565b341561061e57600080fd5b610309600160a060020a0360043516610c28565b341561063d57600080fd5b61049a600160a060020a03600435166024351515610c3d565b341561066157600080fd5b610309600160a060020a0360043516602435610cc9565b341561068357600080fd5b6103dc600160a060020a0360043581169060243516610ceb565b34156106a857600080fd5b6103dc610d16565b34156106bb57600080fd5b610309610d1c565b34156106ce57600080fd5b61049a600160a060020a0360043516610def565b6000828211156106ee57fe5b50900390565b60008282018381101561070357fe5b8091505b5092915050565b600d5460ff1681565b60408051908101604052600a81527f54656e6420546f6b656e00000000000000000000000000000000000000000000602082015281565b600d54600090610100900460ff161561076657600080fd5b6107708383610e8a565b9392505050565b60045481565b60015490565b600d54600090610100900460ff161561079b57600080fd5b6107a6848484610ef6565b949350505050565b60065481565b6000610770826107d56107c686610ab3565b6006549063ffffffff610f0e16565b9063ffffffff610f3916565b601281565b60035433600160a060020a0390811691161461080157600080fd5b600454600c546108169163ffffffff6106e216565b42101561082257600080fd5b33600160a060020a03166108fc30600160a060020a0316319081150290604051600060405180830381858888f19350505050151561085f57600080fd5b7ffdfbd510ced9ae591e489dd47c57e7223bd0019072a0b9181d8194ae042af1da30600160a060020a031631600c544260405180848152602001838152602001828152602001935050505060405180910390a1565b60035433600160a060020a039081169116146108cf57600080fd5b600d54610100900460ff1615156108e557600080fd5b600d805461ff00191690557f7805862f689e2f13df9f062ff482ad3ad112aca9e0847911ed832e158c525b3360405160405180910390a1565b600954600160a060020a03821660009081526008602052604081205490919010156109565761094f826001546107b4565b9050610971565b50600160a060020a0381166000908152600760205260409020545b919050565b60035460009033600160a060020a0390811691161461099457600080fd5b600d5460ff16156109a457600080fd5b6001546109b7908363ffffffff6106f416565b600155600160a060020a0383166000908152602081905260409020546109e3908363ffffffff6106f416565b600160a060020a0384166000818152602081905260409081902092909255907f0f6798a560793a54c3bcfe86a93cde1e73087d944c0ea20544137d41213968859084905190815260200160405180910390a2600160a060020a03831660007fddf252ad1be2c89b69c2b068fc378daa952ba7f163c4a11628f55a4df523b3ef8460405190815260200160405180910390a350600192915050565b60095481565b600d54610100900460ff1681565b600d54600090610100900460ff1615610aa957600080fd5b6107708383610f50565b600160a060020a031660009081526020819052604090205490565b60035460009033600160a060020a03908116911614610aec57600080fd5b600d5460ff1615610afc57600080fd5b600d805460ff191660011790557fae5184fba832cb2b1f702aca6117b8d265eaf03ad33eb133f19dde0f5920fa0860405160405180910390a150600190565b60035433600160a060020a03908116911614610b5657600080fd5b600d54610100900460ff1615610b6b57600080fd5b600d805461ff0019166101001790557f6985a02210a168e66602d3235cb6db0e70f92b3ba4d376a33c0f3d9434bff62560405160405180910390a1565b600a54600160a060020a031681565b60408051908101604052600381527f544e440000000000000000000000000000000000000000000000000000000000602082015281565b600d54600090610100900460ff1615610c0657600080fd5b610770838361104a565b60055481565b60086020526000908152604090205481565b600b6020526000908152604090205460ff1681565b60035433600160a060020a03908116911614610c5857600080fd5b600160a060020a0382166000908152600b602052604090819020805460ff19168315151790557f0f58bb821f51a11dd2b2c4c4bf598154812f2440c5e364d96d0ac50c33455620908390839051600160a060020a039092168252151560208201526040908101905180910390a15050565b600d54600090610100900460ff1615610ce157600080fd5b6107708383611061565b600160a060020a03918216600090815260026020908152604080832093909416825291909152205490565b600c5481565b6000806000600c54118015610d46575042610d44600454600c546106e290919063ffffffff16565b115b1515610d5157600080fd5b610d5a33611105565b50600160a060020a033316600081815260076020526040808220805492905590919082156108fc0290839051600060405180830381858888f193505050501515610da357600080fd5b7f5afeca38b2064c23a692c4cf353015d80ab3ecc417b4f893f372690c11fbd9a63382604051600160a060020a03909216825260208201526040908101905180910390a1600191505090565b60035433600160a060020a03908116911614610e0a57600080fd5b600160a060020a0381161515610e1f57600080fd5b600354600160a060020a0380831691167f8be0079c531659141344cd1fd0a4f28419497f9722a3daafe3b4186f6b6457e060405160405180910390a36003805473ffffffffffffffffffffffffffffffffffffffff1916600160a060020a0392909216919091179055565b600160a060020a03338116600081815260026020908152604080832094871680845294909152808220859055909291907f8c5be1e5ebec7d5bd14f71427d1e84f3dd0314c0f7b2291e5b200ac8c7c3b9259085905190815260200160405180910390a350600192915050565b6000610f0384848461115e565b6107a684848461122a565b600080831515610f215760009150610707565b50828202828482811515610f3157fe5b041461070357fe5b6000808284811515610f4757fe5b04949350505050565b600160a060020a03338116600090815260026020908152604080832093861683529290529081205480831115610fad57600160a060020a033381166000908152600260209081526040808320938816835292905290812055610fe4565b610fbd818463ffffffff6106e216565b600160a060020a033381166000908152600260209081526040808320938916835292905220555b600160a060020a0333811660008181526002602090815260408083209489168084529490915290819020547f8c5be1e5ebec7d5bd14f71427d1e84f3dd0314c0f7b2291e5b200ac8c7c3b925915190815260200160405180910390a35060019392505050565b600061105733848461115e565b61077083836113aa565b600160a060020a033381166000908152600260209081526040808320938616835292905290812054611099908363ffffffff6106f416565b600160a060020a0333811660008181526002602090815260408083209489168084529490915290819020849055919290917f8c5be1e5ebec7d5bd14f71427d1e84f3dd0314c0f7b2291e5b200ac8c7c3b92591905190815260200160405180910390a350600192915050565b600954600160a060020a038216600090815260086020526040902054101561115b57611133816001546107b4565b600160a060020a03821660009081526007602090815260408083209390935560089052204290555b50565b600061116984611105565b61117283611105565b6111a761117e85610ab3565b600160a060020a0386166000908152600760205260409020546107d5908563ffffffff610f0e16565b600160a060020a0385166000908152600760205260409020549091506111d3908263ffffffff6106e216565b600160a060020a038086166000908152600760205260408082209390935590851681522054611208908263ffffffff6106f416565b600160a060020a03909316600090815260076020526040902092909255505050565b6000600160a060020a038316151561124157600080fd5b600160a060020a03841660009081526020819052604090205482111561126657600080fd5b600160a060020a038085166000908152600260209081526040808320339094168352929052205482111561129957600080fd5b600160a060020a0384166000908152602081905260409020546112c2908363ffffffff6106e216565b600160a060020a0380861660009081526020819052604080822093909355908516815220546112f7908363ffffffff6106f416565b600160a060020a038085166000908152602081815260408083209490945587831682526002815283822033909316825291909152205461133d908363ffffffff6106e216565b600160a060020a03808616600081815260026020908152604080832033861684529091529081902093909355908516917fddf252ad1be2c89b69c2b068fc378daa952ba7f163c4a11628f55a4df523b3ef9085905190815260200160405180910390a35060019392505050565b6000600160a060020a03831615156113c157600080fd5b600160a060020a0333166000908152602081905260409020548211156113e657600080fd5b600160a060020a03331660009081526020819052604090205461140f908363ffffffff6106e216565b600160a060020a033381166000908152602081905260408082209390935590851681522054611444908363ffffffff6106f416565b60008085600160a060020a0316600160a060020a031681526020019081526020016000208190555082600160a060020a031633600160a060020a03167fddf252ad1be2c89b69c2b068fc378daa952ba7f163c4a11628f55a4df523b3ef8460405190815260200160405180910390a3506001929150505600a165627a7a72305820cc61e6c9ec233fecd2ebb41e712824e418c4fc6409d51c05bb5829a1062e83f40029",
    "source": "/**\n * @title IcoCrowdsale\n * Simple time and capped based crowdsale.\n *\n * @version 1.0\n * @author Validity Labs AG <info@validitylabs.org>\n */\npragma solidity ^0.4.18;\n\nimport \"../../../node_modules/zeppelin-solidity/contracts/crowdsale/Crowdsale.sol\";\nimport \"../../../node_modules/zeppelin-solidity/contracts/ownership/Ownable.sol\";\nimport \"../../../node_modules/zeppelin-solidity/contracts/lifecycle/Pausable.sol\";\nimport \"../../../node_modules/zeppelin-solidity/contracts/token/ERC20/TokenVesting.sol\";\nimport \"./IcoToken.sol\";\n\ncontract IcoCrowdsale is Crowdsale, Ownable {\n    /*** CONSTANTS ***/\n    // Different levels of caps per allotment\n    uint256 public constant MAX_TOKEN_CAP = 13e6 * 1e18;        // 13 million * 1e18\n\n    // // Bottom three should add to above\n    uint256 public constant ICO_ENABLERS_CAP = 15e5 * 1e18;     // 1.5 million * 1e18\n    uint256 public constant DEVELOPMENT_TEAM_CAP = 2e6 * 1e18;  // 2 million * 1e18\n    uint256 public constant ICO_TOKEN_CAP = 9.5e6 * 1e18;        // 9.5 million  * 1e18\n\n    uint256 public constant CHF_CENT_PER_TOKEN = 1000;          // standard CHF per token rate - in cents - 10 CHF => 1000 CHF cents\n    uint256 public constant MIN_CONTRIBUTION_CHF = 500;\n\n    uint256 public constant VESTING_CLIFF = 1 years;\n    uint256 public constant VESTING_DURATION = 3 years;\n   \n    // Amount of discounted tokens per discount stage (2 stages total; each being the same amount)\n    uint256 public constant DISCOUNT_TOKEN_AMOUNT_T1 = 3e6 * 1e18; // 3 million * 1e18\n    uint256 public constant DISCOUNT_TOKEN_AMOUNT_T2 = DISCOUNT_TOKEN_AMOUNT_T1 * 2;\n\n    // Track tokens depending which stage that the ICO is in\n    uint256 public tokensToMint;            // tokens to be minted after confirmation\n    uint256 public tokensMinted;            // already minted tokens (maximally = cap)\n    uint256 public icoEnablersTokensMinted;\n    uint256 public developmentTeamTokensMinted;\n\n    uint256 public minContributionInWei;\n    uint256 public tokenPerWei;\n    uint256 public totalTokensPurchased;\n    bool public capReached;\n    bool public tier1Reached;\n    bool public tier2Reached;\n\n    address public underwriter;\n\n    // allow managers to blacklist and confirm contributions by manager accounts\n    // (managers can be set and altered by owner, multiple manager accounts are possible\n    mapping(address => bool) public isManager;\n\n    // true if addess is not allowed to invest\n    mapping(address => bool) public isBlacklisted;\n\n    uint256 public confirmationPeriod;\n    bool public confirmationPeriodOver;     // can be set by owner to finish confirmation in under 30 days\n\n    // for convenience we store vesting wallets\n    address[] public vestingWallets;\n\n    uint256 public investmentIdLastAttemptedToSettle;\n\n    struct Payment {\n        address investor;\n        address beneficiary;\n        uint256 weiAmount;\n        uint256 tokenAmount;\n        bool confirmed;\n        bool attemptedSettlement;\n        bool completedSettlement;\n    }\n\n    Payment[] public investments;\n\n    /*** EVENTS ***/\n    event ChangedInvestorBlacklisting(address investor, bool blacklisted);\n    event ChangedManager(address manager, bool active);\n    event ChangedInvestmentConfirmation(uint256 investmentId, address investor, bool confirmed);\n\n    /*** MODIFIERS ***/\n    modifier onlyUnderwriter() {\n        require(msg.sender == underwriter);\n        _;\n    }\n\n    modifier onlyManager() {\n        require(isManager[msg.sender]);\n        _;\n    }\n\n    modifier onlyNoneZero(address _to, uint256 _amount) {\n        require(_to != address(0));\n        require(_amount > 0);\n        _;\n    }\n\n    modifier onlyConfirmPayment() {\n        require(now > endTime && now <= endTime.add(confirmationPeriod));\n        require(!confirmationPeriodOver);\n        _;\n    }\n\n    modifier onlyConfirmationOver() {\n        require(confirmationPeriodOver || now > endTime.add(confirmationPeriod));\n        _;\n    }\n\n    /**\n     * @dev Deploy capped ico crowdsale contract\n     * @param _startTime uint256 Start time of the crowdsale\n     * @param _endTime uint256 End time of the crowdsale\n     * @param _rateChfPerEth uint256 CHF per ETH rate\n     * @param _wallet address Wallet address of the crowdsale\n     * @param _confirmationPeriodDays uint256 Confirmation period in days\n     * @param _underwriter address of the underwriter\n     */\n    function IcoCrowdsale(\n        uint256 _startTime,\n        uint256 _endTime,\n        uint256 _rateChfPerEth,\n        address _wallet,\n        uint256 _confirmationPeriodDays,\n        address _underwriter\n    )\n        public\n        Crowdsale(_startTime, _endTime, _rateChfPerEth, _wallet)\n    {\n        require(MAX_TOKEN_CAP == ICO_ENABLERS_CAP.add(ICO_TOKEN_CAP).add(DEVELOPMENT_TEAM_CAP));\n        require(_underwriter != address(0));\n\n        setManager(msg.sender, true);\n\n        tokenPerWei = (_rateChfPerEth.mul(1e2)).div(CHF_CENT_PER_TOKEN);\n        minContributionInWei = (MIN_CONTRIBUTION_CHF.mul(1e18)).div(_rateChfPerEth);\n\n        confirmationPeriod = _confirmationPeriodDays * 1 days;\n        underwriter = _underwriter;\n    }\n\n    /**\n     * @dev Set / alter manager / blacklister account. This can be done from owner only\n     * @param _manager address address of the manager to create/alter\n     * @param _active bool flag that shows if the manager account is active\n     */\n    function setManager(address _manager, bool _active) public onlyOwner {\n        isManager[_manager] = _active;\n        ChangedManager(_manager, _active);\n    }\n\n    /**\n     * @dev blacklist investor from participating in the crowdsale\n     * @param _investor address address of the investor to disallowed participation\n     */\n    function blackListInvestor(address _investor, bool _active) public onlyManager {\n        isBlacklisted[_investor] = _active;\n        ChangedInvestorBlacklisting(_investor, _active);\n    }\n\n    /**\n     * @dev override (not extend! because we only issues tokens after final KYC confirm phase)\n     *      core functionality by blacklist check and registration of payment\n     * @param _beneficiary address address of the beneficiary to receive tokens after they have been confirmed\n     */\n    function buyTokens(address _beneficiary) public payable {\n        require(_beneficiary != address(0));\n        require(validPurchase());\n        require(!isBlacklisted[msg.sender]);\n\n        uint256 weiAmount = msg.value;\n        uint256 tokenAmount;\n        uint256 purchasedTokens = weiAmount.mul(tokenPerWei);\n        uint256 tempTotalTokensPurchased = totalTokensPurchased.add(purchasedTokens);\n        uint256 overflowTokens;\n        uint256 overflowTokens2;\n        // 20% discount bonus amount\n        uint256 tier1BonusTokens;\n        // 10% discount bonus amount\n        uint256 tier2BonusTokens;\n\n        // tier 1 20% discount - 1st 3 million tokens purchased\n        if (!tier1Reached) {\n            \n            // tx tokens overflowed into next tier 2 - 10% discount - mark tier1Reached! else all tokens are tier 1 discounted\n            if (tempTotalTokensPurchased > DISCOUNT_TOKEN_AMOUNT_T1) {\n                tier1Reached = true;\n                overflowTokens = tempTotalTokensPurchased.sub(DISCOUNT_TOKEN_AMOUNT_T1);\n                tier1BonusTokens = purchasedTokens.sub(overflowTokens);\n            // tx tokens did not overflow into next tier 2 (10% discount)\n            } else {\n                tier1BonusTokens = purchasedTokens;\n            }\n            //apply discount\n            tier1BonusTokens = tier1BonusTokens.mul(10).div(8);\n            tokenAmount = tokenAmount.add(tier1BonusTokens);\n        }\n\n        // tier 2 10% discount - 2nd 3 million tokens purchased\n        if (tier1Reached && !tier2Reached) {\n\n            // tx tokens overflowed into next tier 3 - 0% - marked tier2Reached! else all tokens are tier 2 discounted\n            if (tempTotalTokensPurchased > DISCOUNT_TOKEN_AMOUNT_T2) {\n                tier2Reached = true;\n                overflowTokens2 = tempTotalTokensPurchased.sub(DISCOUNT_TOKEN_AMOUNT_T2);\n                tier2BonusTokens = purchasedTokens.sub(overflowTokens2);\n            // tx tokens did not overflow into next tier 3 (tier 3 == no discount)\n            } else {\n                // tokens overflowed from tier1 else this tx started in tier2\n                if (overflowTokens > 0) {\n                    tier2BonusTokens = overflowTokens;\n                } else { \n                    tier2BonusTokens = purchasedTokens; \n                }\n            }\n            // apply discount for tier 2 tokens\n            tier2BonusTokens = tier2BonusTokens.mul(10).div(9);\n            tokenAmount = tokenAmount.add(tier2BonusTokens).add(overflowTokens2);\n        }\n\n        // this triggers when both tier 1 and tier 2 discounted tokens have be filled - but ONLY afterwards, not if the flags got set during the same tx\n        // aka this is tier 3\n        if (tier2Reached && tier1Reached && tier2BonusTokens == 0) {\n            tokenAmount = purchasedTokens;\n        }\n\n        /*** Record & update state variables  ***/\n        // Tracks purchased tokens for 2 tiers of discounts\n        totalTokensPurchased = totalTokensPurchased.add(purchasedTokens);\n        // Tracks total tokens pending to be minted - this includes presale tokens\n        tokensToMint = tokensToMint.add(tokenAmount);\n\n        weiRaised = weiRaised.add(weiAmount);\n\n        TokenPurchase(msg.sender, _beneficiary, weiAmount, tokenAmount);\n\n        // register payment so that later on it can be confirmed (and tokens issued and Ether paid out)\n        Payment memory newPayment = Payment(msg.sender, _beneficiary, weiAmount, tokenAmount, false, false, false);\n        investments.push(newPayment);\n    }\n\n    /**\n     * @dev confirms payment\n     * @param _investmentId uint256 uint256 of the investment id to confirm\n     */\n    function confirmPayment(uint256 _investmentId) public onlyManager onlyConfirmPayment {\n        investments[_investmentId].confirmed = true;\n        ChangedInvestmentConfirmation(_investmentId, investments[_investmentId].investor, true);\n    }\n\n    /**\n     * @dev confirms payments via a batch method\n     * @param _investmentIds uint256[] array of uint256 of the investment ids to confirm\n     */\n    function batchConfirmPayments(uint256[] _investmentIds) public onlyManager onlyConfirmPayment {\n        uint256 investmentId;\n\n        for (uint256 c; c < _investmentIds.length; c = c.add(1)) {\n            investmentId = _investmentIds[c]; // gas optimization\n            confirmPayment(investmentId);\n        }\n    }\n\n    /**\n     * @dev unconfirms payment made via investment id\n     * @param _investmentId uint256 uint256 of the investment to unconfirm\n     */\n    function unConfirmPayment(uint256 _investmentId) public onlyManager onlyConfirmPayment {\n        investments[_investmentId].confirmed = false;\n        ChangedInvestmentConfirmation(_investmentId, investments[_investmentId].investor, false);\n    }\n\n    /**\n     * @dev allows contract owner to mint team tokens per ICO_TOKEN_CAP and transfer to the team wallet\n     * @param _beneficiary address address of the beneficiary to receive tokens\n     * @param _tokens uint256 uint256 of the token amount to mint\n     */\n    function mintTokenPreSale(address _beneficiary, uint256 _tokens) public onlyOwner {\n        // during pre-sale we can issue tokens for fiat or other contributions\n        // pre-sale ends with start of public sales round (accepting Ether)\n        require(now < startTime);\n        require(tokensToMint.add(_tokens) <= ICO_TOKEN_CAP);\n\n        tokensToMint = tokensToMint.add(_tokens);\n\n        // register payment so that later on it can be confirmed (and tokens issued and Ether paid out)\n        Payment memory newPayment = Payment(address(0), _beneficiary, 0, _tokens, false, false, false);\n        investments.push(newPayment);\n        TokenPurchase(msg.sender, _beneficiary, 0, _tokens);\n    }\n\n    /**\n     * @dev allows contract owner to mint tokens for ICO enablers respecting the ICO_ENABLERS_CAP (no vesting)\n     * @param _to address for beneficiary\n     * @param _tokens uint256 token amount to mint\n     */\n    function mintIcoEnablersTokens(address _to, uint256 _tokens) public onlyOwner onlyNoneZero(_to, _tokens) {\n        require(icoEnablersTokensMinted.add(_tokens) <= ICO_ENABLERS_CAP);\n\n        token.mint(_to, _tokens);\n        icoEnablersTokensMinted = icoEnablersTokensMinted.add(_tokens);\n    }\n\n    /**\n     * @dev allows contract owner to mint team tokens per DEVELOPMENT_TEAM_CAP and transfer to the development team's wallet (yes vesting)\n     * @param _to address for beneficiary\n     * @param _tokens uint256 token amount to mint\n     */\n    function mintDevelopmentTeamTokens(address _to, uint256 _tokens) public onlyOwner onlyNoneZero(_to, _tokens) {\n        require(developmentTeamTokensMinted.add(_tokens) <= DEVELOPMENT_TEAM_CAP);\n\n        developmentTeamTokensMinted = developmentTeamTokensMinted.add(_tokens);\n        TokenVesting newVault = new TokenVesting(_to, now, VESTING_CLIFF, VESTING_DURATION, false);\n        vestingWallets.push(address(newVault)); // for convenience we keep them in storage so that they are easily accessible via MEW or etherscan\n        token.mint(address(newVault), _tokens);\n    }\n\n    /**\n     * @dev returns number of elements in the vestinWallets array\n     */\n    function getVestingWalletLength() public view returns (uint256) {\n        return vestingWallets.length;\n    }\n\n    /**\n     * @dev set final the confirmation period\n     */\n    function finalizeConfirmationPeriod() public onlyOwner onlyConfirmPayment {\n        confirmationPeriodOver = true;\n    }\n\n    /**\n     * @dev settlement of investment made via investment id\n     * @param _investmentId uint256 uint256 being the investment id\n     */\n    function settleInvestment(uint256 _investmentId) public onlyConfirmationOver {\n        Payment storage p = investments[_investmentId];\n\n        // investment should not be settled already (prevent double token issueing or repayment)\n        require(!p.completedSettlement);\n\n        // investments have to be processed in right order\n        // unless we're at first investment, the previous has needs to have undergone an attempted settlement\n\n        require(_investmentId == 0 || investments[_investmentId.sub(1)].attemptedSettlement);\n\n        p.attemptedSettlement = true;\n\n        // just so that we can see which one we attempted last time and can continue with next\n        investmentIdLastAttemptedToSettle = _investmentId;\n\n        if (p.confirmed && !capReached) {\n            // if confirmed -> issue tokens, send ETH to wallet and complete settlement\n\n            // calculate number of tokens to be issued to investor\n            uint256 tokens = p.tokenAmount;\n\n            // check to see if this purchase sets it over the crowdsale token cap\n            // if so, calculate tokens to mint, then refund the remaining ether investment\n            uint256 tempMintedTokens = tokensMinted.add(tokens);\n            uint256 refundWeiAmount;\n            uint256 investedWeiAmount;\n            \n            if (tempMintedTokens > ICO_TOKEN_CAP) {\n                capReached = true;\n                uint256 overflowTokens = tempMintedTokens.sub(ICO_TOKEN_CAP);\n                tokens = tokens.sub(overflowTokens);\n                refundWeiAmount = overflowTokens.div(tokenPerWei);\n                investedWeiAmount = p.weiAmount.sub(refundWeiAmount);\n            }\n\n            //Checks and balances to make sure tokensMinted == tokensToMint\n            require(tokensMinted.add(tokens) <= ICO_TOKEN_CAP);\n            require(tokensToMint.sub(tokens) >= 0);\n            tokensToMint = tokensToMint.sub(tokens);\n            tokensMinted = tokensMinted.add(tokens);\n\n            // mint tokens for beneficiary\n            token.mint(p.beneficiary, tokens);\n\n            // send Ether to project wallet throws if wallet throws\n            if (capReached && p.weiAmount > 0) {\n                wallet.transfer(investedWeiAmount);\n                if (p.investor.send(refundWeiAmount)) {\n                    // do nothing\n                }\n            } else if (p.weiAmount > 0) {\n                wallet.transfer(p.weiAmount);\n            }\n\n            p.completedSettlement = true;\n        } else {\n            // if not confirmed -> reimburse ETH or if fiat (presale) investor: do nothing\n            // only complete settlement if investor got their money back\n            // (does not throw (as .transfer would)\n            // otherwise we would block settlement process of all following investments)\n            if (p.investor != address(0) && p.weiAmount > 0) {\n                if (p.investor.send(p.weiAmount)) {\n                    tokensToMint = tokensToMint.sub(p.tokenAmount);\n                    p.completedSettlement = true;\n                }\n            }\n        }\n    }\n\n    /**\n     * @dev allows the batch settlement of investments made\n     * @param _investmentIds uint256[] array of uint256 of investment ids\n     */\n    function batchSettleInvestments(uint256[] _investmentIds) public {\n        for (uint256 c; c < _investmentIds.length; c = c.add(1)) {\n            settleInvestment(_investmentIds[c]);\n        }\n    }\n\n    /**\n     * @dev allows contract owner to finalize the ICO, unpause tokens, set treasurer, finish minting, and transfer ownship of the token contract\n     */\n    function finalize() public onlyUnderwriter onlyConfirmationOver {\n        Pausable(token).unpause();\n\n        // this crowdsale also should not be treasurer of the token anymore\n        IcoToken(token).setTreasurer(this, false);\n\n        // do not allow new owner to mint further tokens\n        MintableToken(token).finishMinting();\n\n        // until now the owner of the token is this crowdsale contract\n        // in order for a human owner to make use of the tokens onlyOwner functions\n        // we need to transfer the ownership\n        // in the end the owner of this crowdsale will also be the owner of the token\n        Ownable(token).transferOwnership(owner);\n    }\n\n    /**\n     * @dev Create new instance of ico token contract\n     */\n    function createTokenContract() internal returns (MintableToken) {\n        return new IcoToken();\n    }\n\n    /**\n     * @dev extend base functionality with min investment amount\n     */\n    function validPurchase() internal view returns (bool) {\n        // minimal investment: 500 CHF (represented in wei)\n        require (msg.value >= minContributionInWei);\n        return super.validPurchase();\n    }\n}\n",
    "sourcePath": "/Volumes/Workspace/ICOTend/src/contracts/ico/IcoCrowdsale.sol",
    "compiler": {
        "name": "solc",
        "version": "0.4.18+commit.9cf6e910.Emscripten.clang"
    },
    "schemaVersion": "1.0.1",
    "updatedAt": "2018-01-26T15:56:05.562Z"
}